:1000000080312A290000A41DC11E251A6C323B1024
:10001000C21E251A6C323B150000A101A201A001ED
:10002000A3013508031D172834080319312810309F
:10003000B6000310B20DB30DA00DA30D35082302B9
:10004000031D242834082002031C2D283408A00294
:10005000031CA3033508A3020314A10DA20DB60BC4
:1000600019288031D82922000E1208302000A10062
:1000700039280000A1174E28A113B80C220003183C
:100080000E16031C0E12200021174E282113A10B5F
:100090003D284A28000022000E162000103084005F
:1000A000840B50280000A11B3C28211B4628080077
:1000B0002300951715140000000003188128130869
:1000C0007F392000B100230011082000B200230076
:1000D00012082000B3003108B80033203208230092
:1000E000910020003308230092009517151400009A
:1000F00000002000B00B7D287F28230081289F2846
:100100002300130D140D7F392000B10023001108C6
:100110002000B200230012082000B3003108B8000C
:10012000332032082300910020003308230092007E
:10013000910A0319920A03102000B00B58280800F6
:100140000408B700B11FAC28B717371EB70AB009AB
:10015000B109B00A0319B10A310EF038B300B30780
:10016000E23EB400323EB60031080F39B407B4079E
:10017000B607E93EB500B507B507300E0F39B5072C
:10018000B607B50DB60DB609B60D30080F39B6076E
:10019000B30D0730B2000A30B607B503031CCC28F4
:1001A000B507B403031CD028B407B303031CD42839
:1001B000B307B203031CD828323084000730370558
:1001C000371384033705031DEC28371A840A371ABE
:1001D000EC282030A00009298407363004020319D6
:1001E00037170008A000031DFD28371BFD28371A0C
:1001F0001129B719FD2820300829B71F05292D30EE
:10020000A00084033713B7130929B715371230300C
:10021000A007B1010408B0002008B800332030085E
:100220008400840A371FED2808001030840000087D
:10023000031928290530A100A001A00B1D29A10B3D
:100240001C292E30A000A00B23292629800B1A2957
:100250008031112A84011F3083057C3021009900F0
:1002600022000E1623008C018E01220092019101C2
:10027000940193017830210099001A302000A000E9
:10028000A00B40290000003021008E0022008E01CA
:1002900021001E109E1023008C008E0021001E10D5
:1002A0009E10153023008C0000308E0021001E1699
:1002B0009E161E139E171D142000A601A501A8015D
:1002C000A701AA01A901AC01AB012D10AF01AE013C
:1002D0000030A10021001D08C339200021042100A5
:1002E0009D000D302000A000A00B742921009D145A
:1002F0009D1878291C082000A30021001B0820005D
:10030000A5002308A6000830A10021001D08C3395C
:100310002000210421009D000D302000A000A00B32
:100320008F2921009D149D1893291C082000A300EB
:1003300021001B082000A7002308A8000C30A10002
:1003400021001D08C3392000210421009D000D302B
:100350002000A000A00BAA2921009D149D18AE2901
:100360001C082000A30021001B082000AB0023086C
:10037000AC00A608031DE5292508333C031CE5292C
:100380002C08013C0318E129FF3A031DCB292B0857
:10039000003C0318E12900302B02B00002302C3B56
:1003A000B100B3003008B200B5010330B4000D282D
:1003B0002108003CA5000030A6002208A63B2D1411
:1003C000E429A601A5012D10E6292D1003302300F4
:1003D000910000309200031004302000B00058203B
:1003E000023084002608B1002508B000A0200730A4
:1003F0002300910000309200031004302000B00070
:100400005820023084002808B1002708B000A0203E
:100410003B30B80033202A30B80033209630B0008B
:100420001529A608031D182A2508333C03181C2A81
:1004300022008E101E2A200022008E142000280880
:10044000003C0318382AFF3A031D2A2A2708E53CF6
:100450000318382A2808023C031C382A031D342AB2
:100460002708183C031C382A22000E153A2A2000BF
:1004700022000E112000AE0A0319AF0A2E08323CEA
:10048000031D512AAF08031D512A013022008E0698
:1004900020002D1C4F2A023022008E062000AF01C2
:0604A000AE0168296300B3
:020000040001F9
:04000E00C439FF1ED4
:00000001FF
;PIC16F1823
;CRC=2434  CREATED="24-may-16 20:59"
